8=FIXT.1.1|9=150|35=Q|49=BROKER|56=CLIENT|34=10|52=20250107-10:00:00.000|1128=9|37=ORD123|17=EXEC456|127=D|55=MSFT|54=2|38=100|32=100|31=250.50|58=No matching order found|10=123|