8=FIXT.1.1|9=160|35=BN|49=EXCHANGE|56=CLIENT|34=8|52=20250107-11:00:00.000|1128=9|37=ORD789|17=EXEC101|1036=1|11=CLORD456|55=GOOGL|54=1|38=50|32=50|31=2800.00|14=50|6=2800.00|10=123|