8=FIXT.1.1|9=150|35=D|49=BUYER|56=SELLER|34=1|52=20251006-15:30:00.000|1128=9|11=ORD0001|55=AAPL|54=1|38=100|40=2|44=150.25|60=20250106-15:30:00.123|10=123|