8=FIXT.1.1|9=140|35=q|49=CLIENT|56=EXCHANGE|34=20|52=20250107-14:00:00.000|1128=9|11=MASSCANCEL001|530=7|60=20250107-14:00:00.123|58=Cancel all open orders|10=123|