8=FIXT.1.1|9=180|35=G|49=CLIENT|56=EXCHANGE|34=3|52=20250106-15:30:00.000|1128=9|41=ORD0001|11=ORD0002|55=AAPL|54=1|60=20250106-15:30:00.123|40=2|38=200|44=155.75|10=123|