8=FIXT.1.1|9=160|35=9|49=EXCHANGE|56=CLIENT|34=6|52=20250107-12:01:00.000|1128=9|37=EX12345|11=CANCEL001|41=ORD0001|39=2|102=1|58=Order already filled|10=123|