8=FIXT.1.1|9=160|35=r|49=EXCHANGE|56=CLIENT|34=21|52=20250107-14:00:01.000|1128=9|37=MASS123|11=MASSCANCEL001|530=7|531=7|533=15|60=20250107-14:00:01.456|58=Cancelled 15 orders|10=123|