8=FIXT.1.1|9=120|35=H|49=CLIENT|56=EXCHANGE|34=4|52=20250106-16:00:00.000|1128=9|11=ORD0001|55=AAPL|54=1|37=12345|10=123|