8=FIXT.1.1|9=140|35=F|49=CLIENT|56=EXCHANGE|34=5|52=20250107-12:00:00.000|1128=9|41=ORD0001|11=CANCEL001|55=TSLA|54=1|60=20250107-12:00:00.123|10=123|